:100000000C9495020C94DC020C94DC020C94DC023F
:100010000C94DC020C94DC020C94DC020C94DC02E8
:100020000C94DC020C94DC020C9431210C9405221B
:100030000C94CA180C94DC020C94DC020C94DC02C4
:100040000C94DC020C94DC020C94DC020C94DC02B8
:100050000C94DC020C9421190C94DC020C94DC024C
:100060000C94DC020C94DC020C94DC020C94DC0298
:100070000C94DC020C94DC020C94DC020C94DC0288
:100080000C94DC020C94DC020C94DC020C94DC0278
:100090000C94DC020C94DC020C94DC020C94DC0268
:1000A0000C94DC020C94DC020C94DC02165C1E0046
:1000B0001F0020002100220023002400250026002C
:1000C00027002D002E002A0035002B0014001A00F6
:1000D0000800150017001C0018000C001200130087
:1000E0002F00300031004C003900040016000700DA
:1000F00009000A000B000D000E000F003300340051
:100100001E0028004B00E10000001D001B0006003F
:100110001900050011001000360037003800E50016
:1001200052004E00E000E300E2000000000000008A
:100130002C0000000000E6000151E40050005100D6
:100140004F0035003A003B003C003D003E003F00C0
:100150004000410042004300440045004C0046007E
:100160000100010001000100005C0100010001002C
:1001700049000100010001004800010001000100E8
:100180000100010001000100010001000100010067
:10019000010001000100010049004A00E1000000E7
:1001A000010001000100010001000100A8000100A0
:1001B00001000100E500A9004D00E000E300E200BD
:1001C000000000000000010000000000E600010047
:1001D000E4000100AA00010001000100010001008B
:1001E0000100010001000100010001000100010007
:1001F00001000100010001000100010001000100F7
:10020000010001000100010001000100480001009F
:1002100001000100010001000100010001000100D6
:1002200001000100010001000100010001000100C6
:1002300001000100000001000100010001000100B7
:1002400001000100010001000100010001000100A6
:10025000010001000100000000000000010000009A
:100260000000010001000100010001000100010087
:100270000100010001000100010001000100010076
:100280000100010001000100010001000100010066
:100290000100010001000100010001000100010056
:1002A00001004800010001000100010001000100FF
:1002B0000100010001000100010001000100010036
:1002C0000100010001000100010000000100010027
:1002D0000100010001000100010001000100010016
:1002E0000100010001000100010001000000000008
:1002F00000000100000000000100010001000100F9
:100300000100010000000000000000002A2B28006E
:1003100000000000000000000000000000000029B4
:10032000000000002C1E3420212224342627252EF4
:10033000362D3738271E1F2021222324252633332C
:10034000362E37381F0405060708090A0B0C0D0E58
:100350000F101112131415161718191A1B1C1D2F24
:100360003130232D350405060708090A0B0C0D0E44
:100370000F101112131415161718191A1B1C1D2F04
:100380003130354C0000000000000000000000008B
:1003900000000000000000007E0F00D4FFFFFFC738
:1003A000000000780403300000000E0377006100B5
:1003B000760065003600350000001A034400610035
:1003C0006E00690065006C0020005100750061003E
:1003D0006300680000000403090409025B000301D4
:1003E00000A0FA0904000001030101000921110124
:1003F00000012240000705810308000A09040100EA
:10040000020300000009211101000122220007055A
:1004100082032000010705030320000109040200F4
:1004200001030000000921110100012281000705DC
:10043000840320000A120110010000000851440248
:10044000000100010203010660FF0961A1010962C8
:10045000150026FF00952075088102096315002606
:10046000FF00952075089102C005010902A10185D0
:10047000020901A1000509190129051500250195A9
:100480000575018102950175038101050109300996
:10049000311581257F95027508810609381581255A
:1004A0007F950175088106050C0A38021581257FA4
:1004B000950175088106C0C005010980A101850369
:1004C00019012AB700150126B700950175108100A2
:1004D000C0050C0901A101850419012AA00215011A
:1004E00026A002950175108100C005010906A10131
:1004F000050719E029E71500250195087501810216
:100500009501750881010507190029FF150026FFCF
:1005100000950675088100050819012905950575DE
:10052000019102950175039101C011241FBECFEF07
:10053000DAE0DEBFCDBF04B603FE27C0809187029C
:1005400090918802A0918902B0918A028730904BE5
:10055000A740B04BD1F410928702109288021092FB
:10056000890210928A0214BE84B7877F84BF0FB6B7
:10057000F894A89580916000886180936000109243
:1005800060000FBEE0E0F8E3099511E0A0E0B1E003
:10059000EEECF8E402C005900D92AA3AB107D9F743
:1005A00022E0AAEAB1E001C01D92A738B207E1F744
:1005B0000E94E71D0C942E240C94000089EA61111E
:1005C00001C08AEA0C944D0F81E0089581E00895FE
:1005D0000C94E60208950C94EA021F93CF93DF93E4
:1005E00000D000D00F92CDB7DEB749835A836B831A
:1005F0003091C50189819A8131111DC06623B9F0FE
:100600002223A9F00E944116182F682F89819A8110
:100610000E94ED1569817A81812F0F900F900F90C4
:100620000F900F90DF91CF911F910C94420A0E947E
:100630001916182FEFCF0E94411669817A81EDCFEC
:10064000FC01262F408151816281738184810C9449
:10065000ED02CF93DF93EC0160E00E942003BE0126
:10066000DF91CF910C94EB02FF920F931F93CF93E6
:10067000DF93E82FF0E0EC5FFC4FF490C82FC695B5
:10068000C695C695D0E0FE01EC56FC4F04918770EC
:1006900010E0082E02C0159507950A94E2F7017044
:1006A0001127CC57DC4FFE01C491D0E002C0D59594
:1006B000C7958A95E2F7C170DD270115110519F07C
:1006C00081EE0E94650E209719F086EE0E94650E5D
:1006D0008F2D0E944D0FCD2B19F086EE0E94F70E44
:1006E000012B41F081EEDF91CF911F910F91FF908F
:1006F0000C94F70EDF91CF911F910F91FF90089509
:10070000EF92FF920F931F93CF93DF93EC01162F7D
:100710000AE08881882309F454C0813009F04EC072
:100720008981813099F47E0122E0E20EF11C8A81F8
:100730000E944D0FE7012196812F815050F3EFE980
:10074000FFE03197F1F700C00000F7CF823041F4AD
:100750007E0182E0E80EF11C8A810E94650EEACFDC
:10076000833041F47E01E2E0EE0EF11C8A810E94AA
:10077000F70EE0CF843011F02196DDCF2A8122964A
:1007800090E080E0AE014F5F5F4F2053330B2A3083
:10079000310548F0019778F2EFE9FFE03197F1F782
:1007A00000C00000F7CF089FB001099F700D112411
:1007B000C901860F971F2981EA01E4CF0E94340303
:1007C000BACFDF91CF911F910F91FF90EF900895D5
:1007D00060E00C9480038F929F92AF92BF92CF9271
:1007E000DF92EF92FF920F931F936B017C0181E0E8
:1007F00090E0A0E0B0E04C015D0104C0880C991CC1
:10080000AA1CBB1C4A95D2F7B501A4014C015D019D
:1008100004C0880C991CAA1CBB1C2A95D2F7482935
:1008200059296A297B2904C0880F991FAA1FBB1F59
:100830000A95D2F78A019B010C211D212E213F210F
:10084000041715072607370789F48C299D29AE2937
:10085000BF29BC01CD011F910F91FF90EF90DF9058
:10086000CF90BF90AF909F908F9008958095909576
:10087000A095B0958C219D21AE21BF21EACF0F9389
:10088000382F262F60913002709131028091320210
:1008900090913302042F432F0E94EB030F910C948D
:1008A0002B150E946B190E947E17811102C00E94B5
:1008B0001B180C9493060C94960608950C945D04F2
:1008C00081E008950C946004CF93C82F0E945E04C9
:1008D0008C2FCF910C94620408950E94CF110E9436
:1008E0006C042FEF84E39CE0215080409040E1F7BE
:1008F00000C000000C9445190F931F93CF93DF9312
:10090000EC0161E00E9420038C01BE010E94790885
:10091000882359F1BE01C8010E94E802882329F109
:10092000BE01C8010E947A0B8823F9F0BE01C801FC
:100930000E94BB0B8823C9F0BE01C8010E94DE0CD7
:10094000882399F08A81882339F001158CE51807EE
:1009500051F00E3D1C4579F0CE01DF91CF911F91F2
:100960000F910C94E4020E946D0480E0DF91CF911E
:100970001F910F9108950E941B18F7CFCF93DF931B
:100980000E94420A0E94B805EC01811521E59207F8
:1009900008F042C0811530E5930708F09DC0883EFD
:1009A000910530F5803E910508F092C0883A910596
:1009B00088F4853A910508F084C08130910509F4E6
:1009C00087C0009709F484C0049708F081C0D0E084
:1009D000C0E07EC08F3B9105D0F7C85AD0E0CC0F65
:1009E000DD1FCB5EDE4F0990D881C02DD46470C06E
:1009F0008115904250F4C11581E0D80708F068C015
:100A0000C03FD10520F3D06563C0C11590E4D9077C
:100A1000F0F2DF70D06A5CC0811525E5920700F521
:100A2000811534E5930708F08BC0811543E59407E1
:100A300008F073C0C11582E5D80708F469C0CE017B
:100A40008370992721E030E002C0220F331F8A957E
:100A5000E2F7C695C69580E2C89FE001112454C014
:100A6000C11599E5D907A8F4C11528E5D20708F002
:100A70006CC0C11536E5D30708F0A9CF8C2F0E94B2
:100A80004F06C82FD0E0DC2FCC27CC27DF71D062F7
:100A90001FC0C1154AE5D40708F45CC0CE019056CA
:100AA0008115904208F093CF8D2F8F710E944F06D1
:100AB00090E0982F882788279F719C012C2BE901B3
:100AC000E6CFC55AD0E0CD5BDE4FC881D0E0D06420
:100AD000CE01DF91CF910895E4E096958795EA9550
:100AE000E1F783702C2F26952695237040E2249FF2
:100AF00090011124382B8C2F8370C1E0D0E002C00C
:100B0000CC0FDD1F8A95E2F7C22BD32BDC68E0CF38
:100B1000DC2FCC27C16FD06ADBCF8370992721E00F
:100B200030E002C0220F331F8A95E2F7C695C695C2
:100B300090E2C99FE0011124C22BD32BDA68C8CF01
:100B4000D82FCC27C46FD06AC3CFDC2FCC27C06F7F
:100B5000D06ABECF8C2F8F700E944F0634E0D6959E
:100B6000C7953A95E1F7CF709C2FEC01D069B0CFD3
:100B700082389105B1F1B0F48133910509F475C063
:100B800048F48932910509F469C08A32910509F463
:100B900073C008958533910509F459C089339105CF
:100BA00001F10895833E9105A9F138F4803E910545
:100BB000F9F0823E910549F10895863E9105A9F12B
:100BC000873E9105C9F1843E910519F5209179027E
:100BD00021FF1FC08091780284FD14C087EE90E051
:100BE0000895209178022370A1F080EE90E008959E
:100BF0002091780220FD47C03091790230FF09C072
:100C000024FF44C090E080E004C02091780222FDDF
:100C1000F7CF08952091780222FD3BC030917902F0
:100C200030FDE3CF24FFF5CFEDCF2091780223FFF5
:100C3000F0CF24FDE7CFD2CF2091780223FD2CC046
:100C40003091790231FFEECF84EE90E0089520914B
:100C5000780225FFDECF89E290E0089520917802A6
:100C600025FFD7CF85E390E008952091780226FFF5
:100C7000D0CF8AE290E008952091780226FFC9CF74
:100C800081E390E0089589E390E0089583EE90E099
:100C9000089582EE90E0089586EE90E00895909198
:100CA000780292FF06C0282F28712830F9F4877F38
:100CB000846093FF06C0282F28712831F1F4877EC5
:100CC00084612091790220FF06C0382F38713830B6
:100CD000D9F4877F816021FF06C0282F2871283131
:100CE000D1F4877E816194FD877E0895282F247139
:100CF0002430F9F68B7F8860DCCF282F24712431D3
:100D000001F78B7E8861DDCF382F3171313019F7D3
:100D10008E7F8860E0CF282F2171213121F78E7ED0
:100D20008861E1CF08950C94920608950C9495067D
:100D3000E82FF0E0EE0FFF1FE659FD4F8081918113
:100D40000895089580EA8A95F1F70895CF93DF9387
:100D5000A5E5B1E04AE551E0C1E0D0E08D91E82F92
:100D6000E295EF70F0E061A18F709E0101C0220F4B
:100D70008A95EAF7922F9095962391A382A1822BD0
:100D800082A34A175B0751F7A6E4B1E061E070E087
:100D90008D91E82FE295EF70F0E041A18F709B01FB
:100DA00001C0220F8A95EAF7922F9095942391A380
:100DB00082A1822B82A381E0A535B80749F7109262
:100DC00061021092600210926B0210926A021092FD
:100DD00063021092620210926D0210926C021092E5
:100DE00065021092640210926F0210926E021092CD
:100DF00067021092660210927102109270021092B5
:100E0000690210926802109273021092720285E0D9
:100E10000E949507DF91CF910C9451048F929F927D
:100E2000AF92BF92CF92DF92EF92FF920F931F93F8
:100E3000CF93DF9385E5E82E81E0F82E00E612E0FF
:100E4000912CAA24A394B12CF70181917F01C82F82
:100E5000C295CF70D0E099A18F70650101C0CC0C14
:100E60008A95EAF7892F8C2989A38AA18C2C8094F2
:100E700088218AA30E94A206E6E4F1E050E040E067
:100E800030E020E06191A62FA295AF70B0E090967F
:100E90008C9190E06F7002C0959587956A95E2F706
:100EA00080FD3EC0C501042E02C0880F991F0A9420
:100EB000E2F7282B392B4F5F5F4F4F30510511F769
:100EC00089A1882289A28AA1C82ACAA2F8018081A0
:100ED00091812817390739F13183208381E0982ADD
:100EE0000E5F1F4FFAE5EF16F1E0FF0609F0ACCFF9
:100EF000292D45E06AE672E080E692E00E949607BE
:100F00000E945B04892DDF91CF911F910F91FF907B
:100F1000EF90DF90CF90BF90AF909F908F9008950B
:100F200090E080E0C6CF80E0DACF0895FF920F9383
:100F30001F93CF93DF93F82E092F162FD72FC42F8F
:100F4000222349F081E08093AC010E94FA1890932B
:100F5000AB018093AA018091AC018823A1F080911C
:100F6000AA019091AB010E941219069760F0EF2D33
:100F7000F02FA12FBD2F90E080E0D0E08C179D07CF
:100F800044F01092AC01DF91CF911F910F91FF902F
:100F90000895219131912D933D930196EFCF0C94BB
:100FA000DE022198299A2098289A83B1869581702B
:100FB000189905C090E0892B8093AF01089592E0C5
:100FC000FACFE091AF01EE0FEE0FE093AF0123B146
:100FD00021FB882780F9189932C020E0822BE82B6A
:100FE000E093AF01EF70F0E0E65AFE4F8081909100
:100FF000AE01890F8093AE0184304CF08091AD0139
:101000008F5F8093AD0160E080E00E94CF07809108
:10101000AE018D3F4CF48091AD0181508093AD01C4
:1010200061E080E00E94CF078091AE01837887FF66
:1010300003C081508C6F8F5F8093AE01089522E0D2
:1010400030E0CCCF82E290E00E94EC23803289F441
:1010500083E290E00E94EC23893059F484E290E02E
:101060000E94EC2391E0843009F090E0892F817098
:10107000089580E0FCCFCF93C82F6FEF811160E21D
:1010800082E290E00E94FA236FEFC11169E083E2EF
:1010900090E00E94FA236FEFC11164E084E290E0D7
:1010A000CF910C94FA2380E00E943B080C947817AF
:1010B000089585E290E00E94EC23682F70E090E0B4
:1010C00080E0089585E290E00C94FA230E9458088D
:1010D0000E94220881110CC060E070E0CB010E94E8
:1010E00062080E94BA090E94A60A81E00C943B089B
:1010F0000895CF93FB01C281CC2309F19C012251B9
:101100003F452031310520F582510E94B60AC0E0EA
:101110008C2FCF91089581E00E94511543E062E049
:1011200081E00E943F04F3CF81E00E94721543E00A
:1011300062E081E00E943F04EBCF82E0F6CF803195
:10114000FFE59F0789F381319F45B9F3C1E0E0CF07
:101150008031EFE59E07F9F281319F45C9F682E0C3
:10116000DBCF2FEFFC0120830895EF92FF920F93C6
:101170001F93CF93DF93EC01062FE881E150E33119
:1011800008F05EC0F0E0E05DFB4D0C94CB231982CB
:1011900089E08A83602FCE01DF91CF911F910F915B
:1011A000FF90EF900C94DB1C8981823069F08330D2
:1011B00071F08130D9F40E9406190E94D1236A830C
:1011C0007B838C839D83E6CF0E945908F6CF7E01F6
:1011D00010E0812F0E949806F701928383831F5F9E
:1011E000F2E0EF0EF11C1530A1F7D4CF602FCE0145
:1011F0000E94B108CFCF89818230C1F76A817B819B
:101200008C819D810E94D1230E946208C3CF4B81B3
:101210006A8189810E948C099827892798279D8354
:101220008C83B8CF2C813D813227232732274B81F5
:101230006A8189810E94A509ADCF0E94BA09AACF0F
:101240008FEF8883A7CF0E944F0A8983A3CF0E9484
:10125000510A9827892798279A8389839BCF6B8186
:1012600070E089819A81AE014C5F5F4F9827892792
:1012700098270E94540A8ECF6B8170E089819A81F1
:10128000AE014C5F5F4F9827892798270E947B0A01
:1012900081CF0E94A60A7ECF0E947A09D6CF6B81A9
:1012A00070E089819A81AE014C5F5F4F9827892752
:1012B00098270E94F2096ECF6B8170E089819A8134
:1012C000AE014C5F5F4F9827892798270E94180A24
:1012D00061CF0E9453085ECF0E94DB1C2FEF81EE8E
:1012E00094E0215080409040E1F700C000000E944F
:1012F000451950CF84E0089550E0440F551F9EE1FA
:10130000699F400D511D112496E9899F400D511D83
:101310001124CA01869608950F931F93CF93DF93EC
:101320000E947C098C010E94EC23C82FD0E0DC2FA6
:10133000CC27C80101960E94EC239E01282BC901ED
:10134000DF91CF911F910F9108950F931F93CF932A
:10135000DF93122F032F0E947C09EC01602F0E9463
:10136000FA23612FCE010196DF91CF911F910F914A
:101370000C94FA23AF92BF92CF92DF92EF92FF923A
:101380001F93CF93DF938CEAC82E80E0D82ED0E055
:101390007601C0E014C0F50125913491412F6C2FE6
:1013A0008D2F0E94A50982E0A80EB11C1F5F1F307F
:1013B00091F78EE1E80EF11CCF5FC53019F05701AF
:1013C00010E0E9CFDF5F86E9C80ED11CD43001F709
:1013D000DF91CF911F91FF90EF90DF90CF90BF9062
:1013E000AF900895EF92FF920F931F93CF93DF93E7
:1013F000EC018A017C01E60EF71ECE018696CE1521
:10140000DF0539F4DF91CF911F910F91FF90EF909D
:101410000895C83522E0D20740F40E94EC23F80179
:1014200080830F5F1F4F2196E8CFF8011082F9CF1C
:10143000CF92DF92EF92FF920F931F93CF93DF93A0
:101440007C016A018C01060F171FEC01CE01869604
:10145000C017D10749F4DF91CF911F910F91FF90F1
:10146000EF90DF90CF900895C83522E0D20740F486
:10147000FE01EE19FF09EC0DFD1D60810E94FA23AB
:101480002196E4CF462F843038F4753028F46F303D
:1014900018F4672F0C948C0990E080E0089580E1A7
:1014A000089582E891E00895EF92FF920F931F93C1
:1014B000CF93DF93EC018A017C01E60EF71ECE018B
:1014C00082589D4FCE15DF0539F4DF91CF911F91E2
:1014D0000F91FF90EF900895C23821E0D20740F4B9
:1014E0000E94EC23F80180830F5F1F4F2196E7CF06
:1014F000F8011082F9CFCF92DF92EF92FF920F9313
:101500001F93CF93DF937C016A018C01060F171F95
:10151000EC01CE0182589D4FC017D10749F4DF91ED
:10152000CF911F910F91FF90EF90DF90CF90089592
:10153000C23821E0D20740F4FE01EE19FF09EC0D9C
:10154000FD1D60810E94FA232196E3CFCF93DF93A4
:10155000CEE7D2E060E0CE010E94FA232196C115C9
:1015600084E0D807B9F7DF91CF910895DF92EF9229
:10157000FF920F931F93CF93DF9300D000D0CDB78E
:10158000DEB7F82E8FE08F1540F08FEF93E00E94CA
:10159000EC230EE712E08823C1F00F900F900F901C
:1015A0000F90DF91CF911F910F91FF90EF90DF90FF
:1015B0000895011584E0180781F3C8010E94EC2307
:1015C000811101C0FA940F5F1F4FF110F2CF198201
:1015D0001A821B821C82DD24D39478018FEFE81AD3
:1015E000F80AC8010E94EC2389831A828823A9F291
:1015F0009FEF980F933078F48A83D9820E5F1F4F44
:10160000C7010E94EC238B83882339F2CE01019617
:101610000E94E803E2CF8701F9CF0F931F93CF9386
:10162000DF93C62FD42F022FFC0182818823C9F0BB
:101630006093B2010E94FA189093B1018093B001B7
:1016400080E28C0F883008F050C0C77081E001C084
:10165000880FCA95EAF7DF91CF911F910F910C94F3
:10166000600F1091B201161335C08091B0019091B6
:10167000B1010E941219883C910560F5C0E2CD0FBE
:101680001D17B9F080E2810F883040F4177081E0B7
:1016900001C0880F1A95EAF70E94670FC83048F416
:1016A00081E09D2F977001C0880F9A95EAF70E94FC
:1016B000600F802F0E944D0FC830B8F4D77081E0C2
:1016C00001C0880FDA95EAF7DF91CF911F910F9152
:1016D0000C94670F80E28C0F883038F4C77081E07B
:1016E00001C0880FCA95EAF7EFCFDF91CF911F9124
:1016F0000F9108959C01CB01233F4CE5340731F154
:1017000090F4283DFCE53F07E9F0293D4CE534071E
:1017100069F1273D3C4579F426E241EE61EE0E94F5
:101720000D0B80E00895253FFCE53F07B9F090F0F0
:10173000263F3C45B9F0FC0182818823D1F010920C
:10174000B201089527E245EE65EEE9CF26E241EECB
:1017500060EEE5CF27E245EE64EEE1CF26E241EE12
:1017600062EEDDCF27E245EE66EED9CF28E241E01A
:10177000EBCF81E00895CF93DF93EC01FB018281F1
:10178000882309F419C1C230FCE5DF07C0F1C63176
:101790009CE5D90730F09E012A5F3C452930310590
:1017A00070F50E9491179093790280937802C0316E
:1017B000ECE5DE0709F4CFC008F05BC0C8308CE56B
:1017C000D80709F4B6C088F5C430ECE5DE0709F4A3
:1017D000A8C0C0F4C2308CE5D80709F49CC0809141
:1017E00078028260C330DC4509F498C080917802A9
:1017F000909179020E949F170E94CF1180E0DF91A3
:10180000CF910895809178028061C630ECE5DE07C3
:1018100009F484C0809178028860C730DC4508F400
:101820007DC080917802806279C0CC308CE5D80789
:1018300009F489C070F4809178028C60CA30ECE5BC
:10184000DE0709F46BC008F478C0809178028E7FBF
:1018500065C0CE308CE5D80709F479C08091780254
:101860008B7FCF30DC4508F459C0809178028F7EA1
:1018700055C0CB3FECE5DE0709F457C030F5C33166
:101880008CE5D80709F46FC078F4C131ECE5DE07C8
:1018900009F465C0C231DC4509F0A8CF0E94CF1120
:1018A000809178028F773AC0C5318CE5D80709F46A
:1018B00062C008F476C0809179028160CA3FDC453D
:1018C00009F094CF8093790291CFCF3FFCE5DF07F9
:1018D00009F44DC088F4809179028D7FCD3F9CE55D
:1018E000D90781F3809179028E7FCE3FDC4550F39A
:1018F000809179028360E6CFC130FDE5DF0709F40E
:1019000059C008F444C080E0C230DD4509F06ECF14
:101910000E941D186BCF80917802816080937802BD
:1019200065CF809178028460F9CF809179028260DE
:10193000C9CF809178028064F1CF0E94CF1180914D
:1019400078028068EBCF809178028D7FE7CF80911D
:101950007802877FE3CF809178028F7DDFCF8091FF
:1019600078028F7BDBCF80917802837FD7CF809105
:1019700079028C7FA7CF8091780282FB992790F91A
:1019800021E0922790FB82F990FB83F9C7CF8091E9
:101990007902982F909591708E7F892B90FB81F919
:1019A00091CF0E94CF1190917802892F97FB87F9F0
:1019B0008058B4CF81E0ACCF81E021CFCF93DF93CB
:1019C000EB0186319C4511F50E94D6169A81992328
:1019D00099F08A7A91E009F490E09093B301811133
:1019E00009C089E20E94B1160E94151780E0DF91BC
:1019F000CF91089585E3F6CF8091B301811104C0A2
:101A000089E20E94B816F0CF85E3FBCF81E0EFCFEB
:101A10009093B9018093B8010895E091B801F091D5
:101A2000B901309721F00190F081E02D099480E018
:101A30000895E091B801F091B901309721F002804A
:101A4000F381E02D09940895E091B801F091B90176
:101A5000309739F022E0DC012C930480F581E02DF1
:101A6000099408952091B6013091B70128173907DC
:101A700071F09093B7018093B601E091B801F091B5
:101A8000B901309721F00680F781E02D099408957F
:101A90002091B4013091B5012817390771F0909366
:101AA000B5018093B401E091B801F091B90130978C
:101AB00021F00084F185E02D0994089585B78068B0
:101AC00085BF85B7806885BF0895089508950C94F3
:101AD000650D08950C94690D0E945E0D0E94660DBF
:101AE0000C94670D81E008950C94720D0E94F1181A
:101AF0000E94A6060E9466080E947F190E94D107D4
:101B00000C946A0D7F928F929F92AF92BF92CF9268
:101B1000DF92EF92FF920F931F93CF93DF93CDB796
:101B2000DEB72A970FB6F894DEBF0FBECDBF0E9476
:101B30000E070E94740D882309F473C04BEBA42E8A
:101B400041E0B42E10E000E0702E802F0E94980635
:101B50006C01F501819091905F018816990609F456
:101B60005AC08091450281FD0E94A10680E0EE24CA
:101B7000E394F12C8C249D2494012E213F21232BCE
:101B800009F443C08E837F82CE20DF2081E0CD2800
:101B900009F480E088870E94FA188160782F9A877C
:101BA00089874E815F8168858A850E94360E000F85
:101BB000111FF801E554FE4F80819181E826F92636
:101BC000F182E0820E94E1070E940C1B0E940D0D31
:101BD0009091BA018917B1F10E940D0D8093BA015D
:101BE0002A960FB6F894DEBF0FBECDBFDF91CF911E
:101BF0001F910F91FF90EF90DF90CF90BF90AF902B
:101C00009F908F907F900C9464048F5FEE0CFF1C6C
:101C10008F3009F0B1CF0F5F1F4F0530110509F06C
:101C200093CF8FEF89838A831B820E94FA18816089
:101C3000782F9D838C8349815A816B818D810E948D
:101C4000360EC0CF2A960FB6F894DEBF0FBECDBFBA
:101C5000DF91CF911F910F91FF90EF90DF90CF9088
:101C6000BF90AF909F908F907F900895CF93DF9318
:101C7000CDB7DEB72B970FB6F894DEBF0FBECDBF42
:101C80004F83588769877A878B871E821D8285E0FC
:101C9000FE013796DE01119601900D928A95E1F7CB
:101CA00049815A816B817C818D819E812B960FB6F3
:101CB000F894DEBF0FBECDBFDF91CF910C944514D9
:101CC000FC01808191810C948316CF93C82F8823C7
:101CD00009F48BC08238C1F40E940D0D81FD85C0CE
:101CE00089E30E94B1160E9415172FEF81EE94E050
:101CF000215080409040E1F700C0000089E30E943D
:101D0000B816CF910C9415178338A1F40E940D0DCD
:101D100080FD6BC083E50E94B1160E9415172FEF5E
:101D200081EE94E0215080409040E1F700C0000037
:101D300083E5E5CF8438A1F40E940D0D82FD55C0E6
:101D400087E40E94B1160E9415172FEF81EE94E0F0
:101D5000215080409040E1F700C0000087E4CFCFE1
:101D60008CEF8C0F813A90F46C2F80910001909150
:101D700001010E943418882329F08C2F0E94B81684
:101D80000E9415178C2F0E94B116BBCF80E28C0FDA
:101D9000883048F4C77081E001C0880FCA95EAF71F
:101DA0000E94D916AECFEBE5EC0FE33040F4F0E043
:101DB000E856FE4F808190E0CF910C94320DE8E51B
:101DC000EC0FE73150F4F0E0EE0FFF1FE659FE4F45
:101DD00080819181CF910C94480DC03F30F08C2FC1
:101DE0000E941A1ACF910C94011BCF910895882359
:101DF00009F452C0823871F40E940D0D81FF4CC06D
:101E000089E30E94B1160E94151789E30E94B81653
:101E10000C941517833859F40E940D0D80FF3CC0B7
:101E200083E50E94B1160E94151783E5EFCF843831
:101E300059F40E940D0D82FF2FC087E40E94B11655
:101E40000E94151787E4E2CF9CEF980F913AF0F2C9
:101E500090E2980F983050F4877091E001C0990F8C
:101E60008A95EAF7892F0E94DF16D2CF9BE5980F5B
:101E7000933020F490E080E00C94320D98E5980FB8
:101E8000973120F490E080E00C94480D803F20F0E2
:101E90000E94821A0C94011B0895CF93C82F0E94B0
:101EA000650EC93349F42FEF87EE93E0215080404F
:101EB0009040E1F700C000008C2FCF910C94F70EFA
:101EC000882321F00E94D9160C94151708958823B1
:101ED00021F00E94DF160C9415170895BF92CF923F
:101EE000DF92EF92FF920F931F93CF93DF936C01DA
:101EF000D62FC72FFC01058102950F701281111199
:101F00000E94F6160E94CF16E82E882391F0112326
:101F1000E9F08C2F807F803421F080E28D0F8830B3
:101F2000A8F082E00E9460170E94CF1691E0E82E90
:101F3000E926BC2EB2949FE0B922FBE0FB15A8F184
:101F4000EB2DF0E0ED5BFB4D0C94CB23E12CF1CFBE
:101F50000C2F0F70C07F11F00295007F1123A9F0A4
:101F6000002359F080E28D0F883010F0D11109C0A4
:101F7000802F0E94D9160E9415178D2F0E94650E82
:101F800014C0802F0E94E916F6CF8D2F0E94F70E05
:101F9000002359F080E28D0F883010F0D1112CC051
:101FA000802F0E94DF160E9415172B2D2850330B0F
:101FB0002430310520F40E940D0D0E946404EE20AF
:101FC00009F48EC10E94CB1680FD8AC1F6011282EF
:101FD0000E94C5160E945115C6010E9491110E94CF
:101FE000C516DF91CF911F910F91FF90EF90DF9079
:101FF000CF90BF900C947215802F0E94EF16D3CF14
:102000002C2F2F70F22EC07FC03219F0F29480EF87
:10201000F822DD2369F0D13049F1112391F1002339
:1020200051F1F601858180FFA8CF8F70858323C091
:10203000112381F0011106C00E94FC168F290E9415
:10204000600FB3CF0130C1F70E94FC168F290E94A8
:102050000217ABCF011106C00E940B178F2D0E94F3
:10206000670FA3CF013009F4A0CFF6CF112329F0D9
:10207000063008F09ACF8F2DE2CF053008F095CFCB
:10208000EDCF002359F3D93349F4FFEF27EE33E0C6
:10209000F15020403040E1F700C000008D2F0E9439
:1020A000F70E83CF8C2F86958695837069F08130EB
:1020B00009F07BCF8D2F9C2F9370111102C090E0FF
:1020C00080E00E94480D71CF8D2F9C2F93701111CD
:1020D00002C090E080E00E94320D67CF8D2F112367
:1020E00029F00E941A1A0E94011B5FCF0E94821AD7
:1020F000FACF8C2F837009F041C0111156CF4D2FAC
:10210000429546954770440F440F0D2F0F7010E015
:1021100030E020E0042E04C0000F111F221F331FE7
:102120000A94D2F760E070E0CB01D4FF0FC06FE0FB
:1021300070E080E090E004C0660F771F881F991F51
:102140004A95D2F76095709580959095C695C695FD
:10215000C370602B712B822B932BC23049F058F443
:10216000C13019F00E94031520CF0E94F1141DCF39
:102170000E9415151ACF0E94EF1417CF86951123D0
:1021800011F08C2F8170882309F40FCF4D2F4295C9
:1021900046954770440F440F0D2F0F7010E030E04C
:1021A00020E0042E04C0000F111F221F331F0A94C9
:1021B000D2F760E070E0CB01D4FF0FC06FE070E0B9
:1021C00080E090E004C0660F771F881F991F4A9532
:1021D000D2F76095709580959095C695C695C37019
:1021E000602B712B822B932BC23049F058F4C130F5
:1021F00019F00E94C815D9CE0E94B615D6CE0E94FD
:10220000DA15D3CE0E942B15D0CECF70112329F032
:102210008C2F0E9451158D2F12CF8D2F0E94670F8A
:102220008C2F0E947215C1CED23F89F160F4D03F4D
:10223000C9F0D13F29F1112309F442C001119DCE0B
:102240008C2F8F7121C0D33F39F1D43FA1F71123D7
:1022500069F1CF718C2F0E94511563E08C2F0E9481
:102260004B17A3CE112341F0053008F09ECE8C2FE2
:102270008F710E94951599CE063008F096CEF7CF53
:102280008C2F8F71112369F20E9451158ECE8C2FE5
:102290008F711123C9F3C5CF112329F08C2F8F71B2
:1022A0000E943C1582CE0E9437157FCE81E00E94AD
:1022B0006017023008F479CE82E00E94601775CE74
:1022C000002359F0D93309F0E9CE8FEF97EEE3E020
:1022D00081509040E040E1F7DFCE8C2F8F71A1CF8D
:1022E000DF91CF911F910F91FF90EF90DF90CF90F2
:1022F000BF9008950F931F93CF93DF93EC016881F4
:1023000079818A810E948D168C010E94EC150E94B1
:10231000EE14B801CE01DF91CF911F910F910C9473
:102320006E0FCF93DF93EC018B819C81892B29F079
:102330008881998189238F3F59F4DF91CF91089546
:10234000CE010E947A11CE01DF91CF910C94290326
:10235000CE010E947C048111F3CF0E94CF16882306
:1023600061F38A81882349F382E0DF91CF910C9455
:1023700060170E94F6160E94F9160E9415170E9417
:10238000261C0E94011B90E080E00E94320D90E02C
:1023900080E00C94480D0E94BF160C94B9110E9465
:1023A000E6160C94CB11E92FE295EF70E250EE3077
:1023B00070F4F0E0E15BFB4D0C94CB23803F19F00F
:1023C00020F4883E20F481E00895843FE1F380E02A
:1023D0000895883EC0F3813FD1F7F5CF93FB88275E
:1023E00080F908950E9483160C94D311CF93DF9344
:1023F00000D000D00F92CDB7DEB70F900F900F90A6
:102400000F900F90DF91CF910895CF93DF9300D07D
:1024100000D000D0CDB7DEB726960FB6F894DEBF59
:102420000FBECDBFDF91CF9108951F93CF93DF9360
:10243000C091C60116E08091C7018C1304C0DF91E2
:10244000CF911F910895D0E01C9FF0011D9FF00DCA
:102450001124E853FE4F4081518162817381848150
:1024600095810E9405122196C770E5CF4091F80131
:102470005091F9016091FA017091FB018091FC018A
:102480009091FD010C9405121F93CF93DF938091DF
:10249000FD01807FA9F48091FA01882389F0809161
:1024A000C601C091C7016091F8017091F901A09136
:1024B000FB01B091FC01D62FD72316E0C81304C04E
:1024C000DF91CF911F91089590E0109711F0DF3FB9
:1024D00019F401968770F2CF189F9001199F300D63
:1024E0001124F901E853FE4F41814713F2CF408197
:1024F0004613EFCF42814111ECCF438154814A1BF7
:102500005B0B483C510528F78091FD018F7080617D
:102510008093FD01F901E353FE4F80818F7080614C
:10252000808388EF91E00E949111DF91CF911F91FC
:102530000C941512AF92BF92CF92DF92EF92FF925E
:102540000F931F93CF93DF93CDB7DEB761970FB68D
:10255000F894DEBF0FBECDBF8C0185E0F801DE012F
:102560001D9601900D928A95E1F7F8014081518105
:10257000E28088EFC82E81E0D82E6091FB01709137
:10258000FC016115710509F461C19091F801209178
:10259000F901892F82238F3F09F458C1A380B480A9
:1025A000F090FA01F501E61BF70BFF2009F4FCC0DF
:1025B0008091FD01382F307FE83CF10508F0B2C072
:1025C000311179C0FE2C251323C0941321C0E110D2
:1025D0001FC08F7080618093FD010E943612C6017A
:1025E0000E9491118091FD01F80185838F2D6196E4
:1025F0000FB6F894DEBF0FBECDBFDF91CF911F9114
:102600000F91FF90EF90DF90CF90BF90AF90089523
:10261000AB2829F0842F85238F3F09F033C180E058
:10262000F82FF170DF2E80FF3CC08091C601209111
:10263000C70136E0821315C04D875E878D859E8564
:102640000E948316292F22952F702230F0F024301B
:1026500018F59F70F1F0F8019581907FD1F4D12C9D
:102660001EC090E0389FF001399FF00D1124E8530F
:10267000FE4F6181651306C06081641303C06281EF
:102680006E110FC001968770D5CF9F7011F088230F
:1026900031F3805E883018F3C8010E949111FD2C3F
:1026A000A5CFEE2009F4A2CF8091FD018160809337
:1026B000FD01F12C9BCF251306C0941304C0F80133
:1026C000EE2009F48DC04D875E878D859E850E9422
:1026D000F211882319F1EE2009F18091FD01803279
:1026E00070F02091F8013091F90138872F83198615
:1026F000BB86AA868C87CE0107960E94911186E040
:10270000F801A8EFB1E001900D928A95E1F70E94DF
:1027100044120E943612FF24F39468CFC8010E942D
:102720009111F9CF311113C07A2DB98AA88A6E2D73
:1027300089890E94F61188EF91E00E94911186E04C
:10274000F60111928A95E9F70E943612B2CF25134D
:102750000FC094130DC0E1100BC0F8018583C801B0
:102760000E94911186E0F60111928A95E9F73ECF19
:102770004D875E878D859E850E94F211882371F2B8
:10278000EE2061F28091FD01803208F4B8CF2091F3
:10279000F8013091F9013A8329831B82BD82AC8212
:1027A0008E83CE010196A9CFE83CF10508F041C027
:1027B000FE2CEE2009F4B2CF25132AC0941328C0B2
:1027C0008091FD0180FD1BC0982F907FC1F0F80122
:1027D0008583903F31F0982F907F905F8F70892B89
:1027E0008583C8010E94911186E0F801A8EFB1E04D
:1027F00001900D928A95E1F70E943612F7CE86E09D
:10280000F801A8EFB1E001900D928A95E1F7EECEC4
:102810004D875E878D859E850E94F21181116FCF55
:102820008091FD0181608093FD01C8010E9491119A
:10283000DDCE7A2DB98AA88A6E2D89890E94F6117B
:1028400086E0F60111928A95E9F7D6CFEE2009F4D9
:1028500065CF4D875E878D859E850E94F211F82E8B
:10286000882309F45BCF86E0F801A8EFB1E001907E
:102870000D928A95E1F788EF91E00E94600E0E9428
:102880004412BACF81E08E25CBCE1F93CF93DF9336
:10289000CDB7DEB72C970FB6F894DEBF0FBECDBF15
:1028A0004F83588769877A878B879C87CE010796E5
:1028B0000E949A12882369F08A859B85892B39F0BA
:1028C0004F815885842F85238F3F09F071C016E012
:1028D0005FC086E0FE013796DE01119601900D92F1
:1028E0008A95E1F78A859B85892B89F388859F8165
:1028F00089238F3F61F32091C70130E0C901019620
:10290000877099274091C6014817190671F40E94F3
:10291000CF111092C7011092C60186E0E8EFF1E0F6
:10292000DF011D928A95E9F7D2CF96E0929FD00100
:10293000939FB00D1124A853BE4FFE013196019014
:102940000D929A95E1F78093C7010E941512BFCFAF
:10295000819FC001112488539E4F0E949A128823A0
:10296000E9F0E091C6011E9FF0011124E853FE4FEB
:102970004081518162817381848195810E94051219
:102980008091C60190E00196877099278093C601D7
:102990008091C6019091C7018913DACF2C960FB6AA
:1029A000F894DEBF0FBECDBFDF91CF911F91089588
:1029B00069857A858B859C850E94051288CF08954C
:1029C0000C94DF140E94E01460933402709335027B
:1029D00080933602909337020C94B91108950C94A9
:1029E000E2140F931F93009134021091350220914D
:1029F000360230913702602B712B822B932B1F9163
:102A00000F910C94E2140F931F93009134021091D4
:102A100035022091360230913702602371238223E0
:102A200093231F910F910C94E2140F931F93009125
:102A3000340210913502209136023091370260271E
:102A40007127822793271F910F910C94E2140C9405
:102A5000DF140C9427150E9429156093300270939F
:102A6000310280933202909333020C94B91160E0EA
:102A700070E0CB010C942B150F931F9341E050E0B5
:102A800060E070E08A019B0104C0000F111F221F4B
:102A9000331F8A95D2F7C901B8011F910F910C9489
:102AA0002B150F931F9341E050E060E070E004C0ED
:102AB000440F551F661F771F8A95D2F78091300209
:102AC00090913102A0913202B09133028A019B01B0
:102AD000082B192B2A2B3B2BC901B8011F910F91F1
:102AE0000C942B150F931F9341E050E060E070E0D1
:102AF00004C0440F551F661F771F8A95D2F7CB017C
:102B0000BA01609570958095909500913002109172
:102B100031022091320230913302602371238223EB
:102B200093231F910F910C942B150F931F9341E04A
:102B300050E060E070E004C0440F551F661F771F2F
:102B40008A95D2F78091300290913102A0913202A1
:102B5000B09133028A019B01082719272A273B27B6
:102B6000C901B8011F910F910C942B150F931F935E
:102B700000913002109131022091320230913302E3
:102B8000602B712B822B932B1F910F910C942B1583
:102B90000F931F9300913002109131022091320265
:102BA0003091330260237123822393231F910F916D
:102BB0000C942B150F931F9300913002109131024A
:102BC00020913202309133026027712782279327A8
:102BD0001F910F910C942B1508952FE0929F800D5B
:102BE0001124982F977041E001C0440F9A95EAF79D
:102BF00086958695869595E0899FF0011124E2508F
:102C0000FE4F90E080E070E05191DF0111979B0151
:102C1000082E02C0369527950A94E2F72170219577
:102C20002527242325272C9301968530910561F7CC
:102C300008952FE0929F800D1124982F977086950C
:102C40008695869525E0829FF0011124E250FE4F83
:102C500050E040E080E0219130E0092E02C036953E
:102C600027950A94E2F721703327042E01C0220F22
:102C70000A94EAF7822B4F5F5F4F4530510559F7B1
:102C80000895BF92CF92DF92EF92FF920F931F931E
:102C9000CF93DF938C01C0903002D0903102E0904E
:102CA0003202F09033028091340290913502A0916B
:102CB0003602B0913702C82AD92AEA2AFB2ACFE184
:102CC000D0E0BC2ED701C6010C2E04C0B695A79546
:102CD000979587950A94D2F780FD0EC0219788F7C3
:102CE000B12C8B2DDF91CF911F910F91FF90EF9021
:102CF000DF90CF90BF900895B8018C2F0E94BE0442
:102D0000019761F3EECFCF93DF93EC010E94411660
:102D1000BE01DF91CF910C94BE041F93CF93DF933C
:102D2000EB019091C501992331F0CB01DF91CF9157
:102D30001F910C948316882379F0CB010E944116D1
:102D4000182F682FCE010E94ED15BE01812FDF9153
:102D5000CF911F910C94BE04CB010E941916182F1D
:102D6000F4CF682F80910001909101010C946A18B2
:102D7000682F80910001909101010C946C18809152
:102D80000001909101010C946E1880913802859594
:102D90008595859508958091380287700895909162
:102DA0003802977081E009F480E008958091440230
:102DB000089590914402892B809344020895809550
:102DC00090914402982390934402089510924402F3
:102DD000089590914302892B809343020895809532
:102DE00090914302982390934302089510924302D6
:102DF000089510924202089580913902089508952D
:102E00000C94FF1690913902981721F080933902A3
:102E10000C940017089580913902882329F01092AC
:102E2000390280E00C9400170895E0910001F091C0
:102E30000101809144028083E0910001F091010141
:102E4000808190914302892B8083E0910001F09171
:102E50000101808190914202892B808390913902F7
:102E6000992381F0E0910001F09101018081892B8B
:102E7000808380910001909101010E9422188111AC
:102E80000E940B1780910001909101010C94190D83
:102E900008950C94481798E0899F90011124622BA3
:102EA000609338020E94511580913802859585956E
:102EB00085950C9449171092380280E00C944917BC
:102EC000909138028095892380933802282F2770AB
:102ED00071F4282F082E000C330B9217130639F0CB
:102EE0008595859585950E9472150C945B170895BC
:102EF0006FEF7FEF90E080E00C94182490E080E08A
:102F00000E94F42321E08C3E9E4F09F020E0822FA6
:102F1000089582E090E00C94EC2383E090E00C9420
:102F2000EC23CF9384E090E00E94EC23C82F81E251
:102F300090E00E94EC23982F8C2FCF910895CF938F
:102F4000C92F682F84E090E00E94FA236C2F81E261
:102F500090E0CF910C94FA23AB01BC018FE090E09C
:102F60000C940C24AB01BC0183E190E00C940C2484
:102F700060E070E0CB010C94B21760E070E0CB0130
:102F80000E94AC170C94B8176CEE7EEF90E080E0D6
:102F90000E94182460E082E090E00E94FA2360E042
:102FA00083E090E00E94FA231092340210923502DE
:102FB000109236021092370260E084E090E00E94A6
:102FC000FA2360E081E290E00E94FA2360E085E06D
:102FD00090E00E94FA2360E086E090E00E94FA23ED
:102FE0006FEF87E090E00E94FA2340E050E0BA01E2
:102FF00088E090E00E940C2460E08DE090E00E9468
:10300000FA2340E050E0BA0188E190E00E940C24ED
:1030100060E087E190E00E94FA2340E050E0BA01CE
:103020008CE190E00E940C2460E080E290E00E943D
:10303000FA230C94BD170C94C417682F8EE090E00F
:103040000C94FA239C012E5F3F4FAC01485F5F4F09
:1030500080E02417350709F40895F90191919F0143
:103060009923B9F38F5FF5CF662349F0FC013296BF
:1030700008962191261729F0E817F907D1F780E083
:10308000089581E008959C01FC0132969FEF80E055
:103090004191461751F09F3F19F4411101C0982FFB
:1030A0008F5F8630A9F79F3F09F40895290F311DDE
:1030B00097FD3A95F90162830895FC0132960896CE
:1030C0002191261303C0DF0111971C92E817F9071D
:1030D000B9F708950C9443180C945D18029626E0F5
:1030E000FC0111922A95E9F70895089508950C942A
:1030F00076180E94771880917E02843049F11092F0
:10310000460288E190E020E40FB6F894A8958093F9
:1031100060000FBE2093600080E00E9464040E9463
:10312000771883B7817F846083BF83B7816083BF53
:103130007894889583B78E7F83BF0FB6F894A8954F
:1031400080916000886180936000109260000FBEE3
:1031500008950895CF930E9475180E940E070E944B
:10316000A918C0E08C2F0E949806892B31F4CF5FFC
:10317000C530C1F780E0CF91089581E0FCCF08957C
:103180000C94BF180E94CF110E940D0D0E94640480
:103190000C94C0181F921FB61F9211248F939F93F7
:1031A000AF93BF9380914602811113C08091740246
:1031B00090917502A0917602B09177024196A11D7F
:1031C000B11D8093740290937502A0937602B09320
:1031D0007702BF91AF919F918F911F901FBE1F905B
:1031E000189582E084BD93E095BD9AEF97BD8093DA
:1031F0006E0008952FB7F894809174029091750233
:10320000A0917602B09177022FBF08952FB7F8945E
:1032100060917402709175028091760290917702AC
:103220002FBF08959C014FB7F8948091740290913C
:103230007502A0917602B09177024FBF821B930B6B
:10324000089578941F921FB61F9211248F939F9315
:10325000AF93BF938091740290917502A091760212
:10326000B09177020196A11DB11D809374029093D5
:103270007502A0937602B0937702BF91AF919F91B0
:103280008F911F901FBE1F90189581E08093E000E2
:1032900080E28093D8001092C9008FE19EE40197EC
:1032A000F1F700C0000087E090EBDC01809387021B
:1032B00090938802A0938902B0938A0288E19CE0EF
:1032C0000FB6F894A895809360000FBE90936000AD
:1032D000FFCF0C9453080E940E078FE39CE90197DF
:1032E000F1F700C000000E940E0780E00E949806DF
:1032F00080FF04C00E9469190C94451908950E942A
:103300007E17811102C00E941B180E9489178093AA
:1033100045020E94911790937902809378020E944F
:103320008D17682F70E090E080E00C94EF1480918E
:103330004E0280FF12C06091070185E0689FB001D6
:103340001124759567957595679560387105A8F591
:1033500061157105A1F1862F089581FF09C0609163
:10336000070185E0689FB001112475956795EDCF41
:103370006091070182FD0AC080914D028823D1F03F
:103380009091060160910701891728F085E0689FF8
:10339000B0011124DACF869FB001112485E0869F09
:1033A0009001879F300D1124692F70E0C9010E94A0
:1033B000B723CBCF65E070E0CECF8FE7089581E0F3
:1033C000089580914E0280FF0CC06091030170E06F
:1033D00075956795759567956115710549F1862F06
:1033E000089581FF06C06091030170E075956795AF
:1033F000F3CF6091030182FD0BC090914D029923A0
:10340000A1F06091020180910301961738F0682FB6
:1034100070E06038710500F38FE70895899FC0015F
:10342000112470E00E94B723F4CF61E070E0D7CFA1
:1034300081E00895803F31F40E949719819580932F
:1034400052020895813F19F40E949719F8CF823FE4
:1034500031F40E9497198195809351020895833F1A
:1034600019F40E949719F8CF893F29F40E94E119B5
:103470008093530208958A3F21F40E94E1198195B7
:10348000F7CF8B3F31F40E94E1198195809354026C
:1034900008958C3F19F40E94E119F8CF843F31F46C
:1034A000809150028160809350020895853F21F4FD
:1034B000809150028260F7CF863F21F480915002C4
:1034C0008460F1CF873F21F4809150028860EBCF78
:1034D000883F21F4809150028061E5CF8D3F31F427
:1034E00080914E02816080934E0208958E3F21F4B8
:1034F00080914E028260F7CF8F3FB9F780914E02E4
:103500008460F1CF90915102803F41F4809152024A
:1035100087FD10925202992371F00895813F29F49A
:10352000809152021816ACF3F6CF823F81F497FFD8
:10353000F2CF109251028091520290915302892B46
:1035400090915402892B49F710924D020895833FC0
:1035500019F4191674F3DFCF893F39F480915302BF
:103560001816CCF610925302D6CF8A3F29F48091D8
:10357000530287FFD0CFF6CF8B3F39F480915402AE
:1035800087FFC9CF10925402C6CF8C3F29F4809197
:1035900054021816BCF3BFCF843F31F4809150021F
:1035A0008E7F80935002B7CF853F21F480915002E7
:1035B0008D7FF7CF863F21F4809150028B7FF1CF32
:1035C000873F21F480915002877FEBCF883F21F421
:1035D000809150028F7EE5CF8D3F31F480914E0275
:1035E0008E7F80934E0297CF8E3F21F480914E02C2
:1035F0008D7FF7CF8F3F09F08ECF80914E028B7F6A
:10360000F0CF8FE492E00E94240D0E94FA1890936C
:103610004C0280934B020895CF93DF9300D000D0EB
:1036200000D0CDB7DEB786E0EFE4F2E0DE01119620
:1036300001900D928A95E1F780915102909152028A
:10364000892B81F08091490290914A020E941219BF
:10365000AC0190914D02992331F1809108018417BA
:10366000150670F18091530290915402892B91F0CC
:1036700080914702909148020E941219AC019091EA
:103680004D02992309F478C080910401841715062E
:1036900008F480C026960FB6F894DEBF0FBECDBFEB
:1036A000DF91CF910895209109018AE0289F900130
:1036B000112424173507B0F69F5F90934D0202C086
:1036C0009F3FD1F710925302109254028091510201
:1036D000181624F40E949719809351028091510288
:1036E00087FF05C00E9497198195809351028091B0
:1036F0005202181624F40E94971980935202809166
:10370000520287FF05C00E9497198195809352024B
:10371000309151023323A1F020915202222381F0F3
:1037200045EB3403C00111249923F1F09093510229
:1037300045EB2403900111243323D1F0309352023E
:103740000E94011B80914B0290914C0290934A027F
:103750008093490286E0FE013196AFE4B2E0019029
:103760000D928A95E1F77ECF81E080935102E0CF00
:1037700081E080935202E4CF209105018AE0289FE6
:10378000900111242417350708F084CF9F5F909390
:103790004D0202C09F3FD1F7109251021092520287
:1037A00080915302181624F40E94E1198093530269
:1037B0008091530287FF05C00E94E1198195809393
:1037C000530280915402181624F40E94E119809348
:1037D00054028091540287FF05C00E94E11981952F
:1037E00080935402309153023323A1F0209154026C
:1037F000222381F045EB3403C00111249923F1F019
:103800009093530245EB2403900111243323D1F00C
:10381000309354020E94011B80914B0290914C0204
:10382000909348028093470286E0FE013196AFE410
:10383000B2E001900D928A95E1F72CCF81E0809360
:103840005302E0CF81E080935402E4CF86E0EFE4BE
:10385000F2E0DF011D928A95E9F710924D02109275
:103860004E02089580915D020895CF93DF9300D0BA
:103870000F92CDB7DEB790917E02943011F5898317
:103880007B836A839093E9008FEF9091E8008150E9
:1038900095FD06C095ED9A95F1F700008111F5CFE1
:1038A0008091E80085FF0DC050E040E063E070E0EB
:1038B000CE0101960E94D71E8091E8008E778093FA
:1038C000E8000F900F900F90DF91CF910895CF9364
:1038D000DF93EC010E94BA1E823011F0843031F483
:1038E000BE0184E0DF91CF910C94351CDF91CF9124
:1038F0000895BC0183E00C94351CCF93DF93EC0159
:103900000E94BA1E823011F08430F9F484E0809372
:10391000E9008FEF9091E800815095FD06C095ED8C
:103920009A95F1F700008111F5CF8091E80085FFAD
:103930000CC050E040E066E070E0CE010E94D71E6F
:103940008091E8008E778093E800DF91CF91089511
:10395000CF93DF93EC010E94BA1E823011F08430C5
:1039600039F581E08093E9008FEF9091E800815074
:1039700095FD06C095ED9A95F1F700008111F5CF00
:103980008091E80085FF14C050E040E068E070E0FE
:10399000CE010E94D71E8091E8008E778093E800C8
:1039A00088E0FE01A5E5B2E001900D928A95E1F76D
:1039B000DF91CF910895CF93FC01603221F5809182
:1039C0007E02843001F5C091E900CF702091EC00B7
:1039D000922F917020FD90E8C92B82E08093E9003E
:1039E0008091E80080FF0CC050E040E060E270E0B1
:1039F000CF010E94D71E8091E8008E778093E80067
:103A0000CF70C093E900CF91089580917D0281111C
:103A100009C00E94B6200E9413218091E2008460B8
:103A20008093E200089510927D020895089508950C
:103A30000C94C21842E061EC81E00E94322042E224
:103A400061EC84E00E94322042E261EC82E00E945C
:103A5000322042E260EC83E00C94322080918002BC
:103A6000833009F461C030F48130D1F1823009F43F
:103A70009DC008958A3009F489C08B3009F46FC065
:103A8000893009F050C080917F02813209F04BC02B
:103A90008091830290918402009719F0029709F0B7
:103AA00042C08091E800877F8093E8008091E80021
:103AB00082FF35C09091F3008091F200029729F4C3
:103AC0008091F1008B7F813021F48091F10080930F
:103AD0005D028091E8008B778093E8000C9466206B
:103AE00080917F02813AF9F48091E800877F80938A
:103AF000E8008091830290918402892B61F468E050
:103B000085E592E070E00E94751F8091E8008B7758
:103B10008093E800089560E090E080E0F3CF80912A
:103B20007E028111C3CF089580917F02813AD9F737
:103B30008091830290918402892BA9F78091E800FB
:103B4000877F8093E8008091E80080FFFCCF809120
:103B500014018093F1008091E8008E77BDCF8091B1
:103B60007F02813201F78091830290918402892B38
:103B7000D1F68091E800877F8093E8000E9466205C
:103B800080918102809314010C94CF1180917F0267
:103B9000813249F68091E800877F8093E8000E9497
:103BA00066208091820280935E02089580917F0258
:103BB000813A09F0B8CF8091E800877F8093E800D0
:103BC0008091E80080FFFCCF80915E02C2CFCDB72C
:103BD000DEB7A0970FB6F894DEBF0FBECDBF84B797
:103BE000877F84BF0FB6F894A895809160008861A4
:103BF00080936000109260000FBE80E890E00FB6E6
:103C0000F89480936100909361000FBE0E946C0D48
:103C10000E94B6200E9413218091E200846080936C
:103C2000E20078940E949C230E94760D8AE091E045
:103C30000E94080D13E080917E02853039F10E94C8
:103C4000820D80917E028430B1F71093E90080915B
:103C5000E80082FFF0CF8091E80090E085FF09C086
:103C600050E040E060E270E0CE0101960E94261F25
:103C700091E08091E8008B778093E8009923D9F256
:103C800060E2CE0101960E94B508D5CF0E94791856
:103C900080917C02882379F20E94AA18882359F225
:103CA0000E94C11EC8CF0C94551E292F33272330E4
:103CB000310521F168F42130310509F449C0223081
:103CC000310509F44AC090E080E030E020E029C0EE
:103CD0002132310581F122323105A9F763307105B6
:103CE00090F7FB01EE0FFF1FE256FE4F208131815E
:103CF00065567E4FFB01808190E013C0992781308B
:103D0000910599F0009741F08230910589F0039771
:103D1000D1F6E4EAF3E002C0E6EDF3E0849190E04E
:103D20009F01FA01318320830895EAEBF3E0F6CF97
:103D3000EAEAF3E0F3CF6330710528F6660F771FE8
:103D4000FB01EC55FE4F2081318189E090E0E9CF05
:103D500082E190E025E334E0E4CF8BE590E02AEDCA
:103D600033E0DFCF80917E02843011F482E0089549
:103D700081E0089580915F02811102C00C94B21E0F
:103D8000089580E189BD82E189BD09B400FEFDCFBF
:103D90008091D8008F7D8093D8008091E000826070
:103DA0008093E0008091E00081FDFCCF0895AF9208
:103DB000BF92CF92DF92FF920F931F93CF93DF9327
:103DC0006C01EB018A010E948520F82E811123C02D
:103DD0000115110539F0F80180819181C81BD90BBB
:103DE000C80ED91EB12CA12C2097A9F08091E80013
:103DF00085FD22C08091E8008E778093E800011550
:103E00001105A1F0F80180819181A80EB91EB1823F
:103E1000A08285E0F82E8F2DDF91CF911F910F9119
:103E2000FF90DF90CF90BF90AF9008950E948520C3
:103E30008823D1F2F82EEFCFF60181916F018093A4
:103E4000F1002197FFEFAF1ABF0ACECFAF92BF921A
:103E5000CF92DF92FF920F931F93CF93DF936C016A
:103E6000EB018A010E948520F82E811123C00115E3
:103E7000110539F0F80180819181C81BD90BC80E5A
:103E8000D91EB12CA12C2097A9F08091E80085FDC6
:103E900022C08091E8008B778093E800011511051E
:103EA000A1F0F80180819181A80EB91EB182A08293
:103EB00085E0F82E8F2DDF91CF911F910F91FF900C
:103EC000DF90CF90BF90AF9008950E948520882307
:103ED000D1F2F82EEFCF8091F100F60181936F01BE
:103EE0002197FFEFAF1ABF0ACECFFC018091850268
:103EF0009091860286179707A0F06115710529F445
:103F00009091E8009E779093E80090E0611571052C
:103F100051F4911108C08091E80082FF34C080E024
:103F20000895BC01F2CF80917E028823C1F18530D3
:103F3000C1F18091E80083FD30C08091E80082FDEE
:103F4000EACF8091E80080FFE1CF8091F3002091DB
:103F5000F200382F6115710519F02830310558F03D
:103F600091E02830310509F090E02091E8002E77AB
:103F70002093E800CBCF81918093F10061507109CB
:103F80002F5F3F4FE7CF80917E02882341F085303D
:103F900041F08091E80083FFBECF81E0089582E088
:103FA000089583E00895FC01809185029091860236
:103FB00086179707A0F06115710529F48091E80034
:103FC0008E778093E80090E06115710551F49111AE
:103FD00008C08091E80082FF35C080E00895BC01F0
:103FE000F2CF80917E028823C9F18530C9F180919A
:103FF000E80083FD31C08091E80082FDEACF809126
:10400000E80080FFE1CF8091F3002091F200382F8B
:104010006115710519F02830310558F091E028300C
:10402000310509F090E08091E8008E778093E800F8
:10403000CBCF84918093F1003196615071092F5F4D
:104040003F4FE6CF80917E02882341F0853041F0DA
:104050008091E80083FFBDCF81E0089582E008955C
:1040600083E00895982F973028F08F708093E900AF
:1040700081E008959093E900242F762F50E098175F
:1040800031F07091EC002091ED005091F00021FD95
:1040900002C09F5FE8CF3091EB003E7F3093EB0092
:1040A0003091ED003D7F3093ED003091EB003160B9
:1040B0003093EB007093EC002093ED005093F000F0
:1040C0002091EE0027FDE5CF80E0089580917F02EA
:1040D00087FF13C08091E80082FF06C08091E8004E
:1040E0008B778093E80004C080917E028111F2CF2B
:1040F000089580917E028823D9F38091E80080FFA3
:10410000F8CF8091E8008E77ECCF2091E4003091D9
:10411000E50095E6A9012091EC00822F817020FF37
:1041200006C08091E80080FF06C080E008952091DD
:10413000E80022FD1AC080917E02882389F0853034
:1041400089F08091EB0085FD0FC02091E400309153
:10415000E50042175307F9F29150E1F684E0089523
:1041600082E0089583E0089581E008950E9424216B
:104170000E942C21E0EEF0E0808181608083E8EDF8
:10418000F0E080818F77808319BCA7EDB0E08C913F
:104190008E7F8C9380818F7E808310927D02089524
:1041A0000F931F93CF93DF930E9424210E942C2111
:1041B000C8EDD0E088818F77888388818068888384
:1041C00088818F7D888319BC10927E0210927A02BA
:1041D00010927C0210927B0200EE10E0F8018081C8
:1041E0008B7F808388818160888342E060E080E00B
:1041F0000E943220E1EEF0E080818E7F8083E2EE4B
:10420000F0E0808181608083808188608083F80114
:1042100080818E7F8083888180618883DF91CF91C8
:104220001F910F910895E8EDF0E080818F7E8083EB
:10423000E7EDF0E080818160808384E082BF81E0EF
:1042400080937D020C94D020E8EDF0E080818E7F99
:1042500080831092E20008951092DA001092E1003B
:1042600008951F920F920FB60F9211242F933F9330
:104270004F935F936F937F938F939F93AF93BF936E
:10428000EF93FF938091E10082FF0BC08091E200E9
:1042900082FF07C08091E1008B7F8093E1000E9444
:1042A0009B238091DA0080FF19C08091D80080FFA5
:1042B00015C08091DA008E7F8093DA008091D9005A
:1042C00080FF96C080E189BD82E189BD09B400FE0E
:1042D000FDCF81E080937E020E94051D8091E10068
:1042E00080FF19C08091E20080FF15C08091E2003C
:1042F0008E7F8093E2008091E20080618093E200F3
:104300008091D80080628093D80019BC85E08093AA
:104310007E020E94171D8091E10084FF2BC08091D6
:10432000E20084FF27C080E189BD82E189BD89B5B3
:10433000982F917080FFFBCF8091D8008F7D809364
:10434000D8008091E1008F7E8093E1008091E200AF
:104350008F7E8093E2008091E20081608093E20092
:1043600080917A02882309F449C084E080937E0218
:104370000E94181D8091E10083FF29C08091E20016
:1043800083FF25C08091E100877F8093E10082E078
:1043900080937E0210927A028091E1008E7F80935A
:1043A000E1008091E2008E7F8093E2008091E20044
:1043B00080618093E20042E060E080E00E94322071
:1043C0008091F00088608093F0000E94161DFF919C
:1043D000EF91BF91AF919F918F917F916F915F917D
:1043E0004F913F912F910F900FBE0F901F901895F6
:1043F00019BC10927E020E94131D70CF8091E300C1
:1044000087FD93E090937E02B3CF1F920F920FB679
:104410000F9211242F933F934F935F936F937F934A
:104420008F939F93AF93BF93CF93DF93EF93FF93BC
:10443000D091E900DF708091EC00C82FC17080FD41
:10444000C0E81092E9008091F000877F8093F0002F
:1044500078940E9449221092E9008091F0008860CF
:104460008093F000CD2BCF70C093E900FF91EF91C6
:10447000DF91CF91BF91AF919F918F917F916F917C
:104480005F914F913F912F910F900FBE0F901F9012
:1044900018951F93CF93DF93CDB7DEB7AA970FB6CA
:1044A000F894DEBF0FBECDBF8FE792E02091F10000
:1044B000FC012193CF01F2E087389F07B9F70E94F2
:1044C0002E1D8091E80083FF1EC180917F02909194
:1044D00080029A3008F017C1E92FF0E0E35AFB4D53
:1044E0000C94CB23803899F0823809F00CC180916C
:1044F00083028F70873008F006C18093E9008091B5
:10450000EB0085FB882780F91092E90006C08091B6
:104510007B0290917C02911182609091E800977FDC
:104520009093E8008093F1001092F1008091E800F0
:104530008E77E5C0882309F4D3C0823009F0E3C048
:10454000809181028111D6C0809183028F702FEFFC
:10455000280F263008F0D7C08093E9002091EB00A7
:1045600020FFC8C0933031F48091EB0080628093CB
:10457000EB00C0C09091EB0090619093EB0021E0C4
:1045800030E001C0220F8A95EAF72093EA001092EA
:10459000EA008091EB008860EACF8111B4C01091ED
:1045A00081021F778091E3008078812B8093E30064
:1045B0008091E800877F8093E8000E9466208091C8
:1045C000E80080FFFCCF8091E30080688093E300E7
:1045D00082E0111183E080937E0295C08058823082
:1045E00008F091C080918102909182028C3D23E07D
:1045F0009207A1F583E08A838AE289834FB7F89412
:10460000DE01139620E03EE051E2E32FF0E050930C
:104610005700E49120FF03C0E295EF703F5FEF7019
:104620008E2F90E0EA30C0F0C7968D939D932F5F58
:10463000243159F74FBF8091E800877F8093E800CD
:104640006AE270E0CE0101960E94751F8091E80039
:104650008B778093E80057C0C096E7CF60918302C4
:1046600070918402AE014F5F5F4F0E94531EBC01E8
:10467000892B09F448C09091E800977F9093E80057
:1046800089819A810E94D31FE1CF8038E1F5809122
:10469000E800877F8093E80080917A028093F100A0
:1046A00045CF811130C090918102923060F58091A8
:1046B000E800877F8093E80090937A020E9466204A
:1046C00080917A02882311F084E005C08091E30094
:1046D00087FDFACF81E080937E020E941A1D13C0ED
:1046E00080918102813079F481E0933009F080E09B
:1046F00080937C021092E9008091E800877F80938C
:10470000E8000E9466208091E80083FF0AC0809143
:10471000E800877F8093E8008091EB0080628093BF
:10472000EB00AA960FB6F894DEBF0FBECDBFDF91A7
:10473000CF911F9108950895CF9380917E02882391
:10474000A1F0C091E900CF709091EC00892F8170A9
:1047500090FD80E8C82B1092E9008091E80083FD6D
:104760000E944922CF70C093E900CF91089597FB32
:10477000072E16F4009407D077FD09D00E94D823A5
:1047800007FC05D03EF4909581959F4F0895709554
:1047900061957F4F0895EE0FFF1F0590F491E02D76
:1047A0000994692796276927782787277827089506
:1047B000AA1BBB1B51E107C0AA1FBB1FA617B70747
:1047C00010F0A61BB70B881F991F5A95A9F7809563
:1047D0009095BC01CD010895F999FECF92BD81BDA0
:1047E000F89A992780B50895A8E1B0E042E050E03A
:1047F0000C942024262FF999FECF92BD81BDF89A02
:10480000019700B4021639F01FBA20BD0FB6F89414
:10481000FA9AF99A0FBE08950396272F0E94FB2358
:104820000E94FA23252F0E94FB23242F0C94FB23A4
:104830000196272F0E94FB230C94FA23DC01CB0165
:10484000FC01F999FECF06C0F2BDE1BDF89A3196A0
:1048500000B40D9241505040B8F70895F894FFCF3E
:10486000C708D408FB08070912091D0920092009F7
:10487000200969096C09230927092F093C094909FD
:104880004C094F095C09A80FA80F00100010521026
:104890006E10D50FD50F7910051114111411DE11FA
:1048A000DE11E711E711E911E711E711E711DE1158
:1048B000DE11EE11E711E711EE1172229A22832325
:0E48C0009A228323CD22EE2283234523512307
:1048CE003A022808641E140A321E321CA81C7D1CD3
:1048DE00791C671C01E200E900EA00B500B600B7DA
:1048EE0000CD008301CC008A0192019401210223A4
:1048FE000224022502260227022A02B300B4006F08
:10490E000070008182839496973435366667F7F689
:10491E00F5F4F1F0C6959392919000FF010001001D
:10492E0000FFFF0000010001FF00E200E900EA00C5
:10493E00B500B600B700CD008301CC008A0192010C
:10494E0094012102230224022502260227022A02B2
:10495E00B300B4006F007000818283402281EA04AC
:0A496E0047046904EC030504250466
:00000001FF
